:100000000C9434000C9449000C9449000C94490061
:100010000C9449000C9449000C9449000C9449003C
:100020000C9449000C9449000C9449000C9449002C
:100030000C9449000C9449000C9449000C9449001C
:100040000C9449000C9449000C9449000C9449000C
:100050000C9449008504A204BF04DC04F9041605CD
:10006000330550056D058A0511241FBECFE5D8E084
:10007000DEBFCDBF10E0A0E6B0E0E4E4FEE002C0E9
:1000800005900D92A437B107D9F70E944B000C944C
:1000900020070C9400000E94CD020E94C4030E941D
:1000A000150383E00E94230481E00E94230482E080
:1000B0000E9423040E94A80566E080E00E940E04CE
:1000C00081E00E944D0483E00E94380480E690E0C5
:1000D0000E94F80384E10E94CD0581E00E9485031F
:1000E00066E080E00E940E0480E690E00E94F80343
:1000F00083E10E94CD050E94D70283E00E9438046C
:1001000081E00E944D0481E00E94850382E10E940B
:10011000CD0583E00E94380481E00E944D0481E017
:100120000E94850381E10E94CD0583E00E9438048E
:1001300081E00E944D0481E00E94850380E10E94DD
:10014000CD0583E00E94380481E00E944D0481E0E7
:100150000E9485038FE00E94CD0583E00E94380451
:1001600081E00E944D0481E00E9485038EE00E94A0
:10017000CD0583E00E94380481E00E944D0481E0B7
:100180000E9485038DE00E94CD0583E00E94380423
:1001900081E00E944D0481E00E9485038CE00E9472
:1001A000CD0583E00E94380481E00E944D0481E087
:1001B0000E9485038BE00E94CD0583E00E943804F5
:1001C00081E00E944D0481E00E9485038AE00E9444
:1001D000CD0583E00E94380481E00E944D0481E057
:1001E0000E94850389E00E94CD0583E00E943804C7
:1001F00081E00E944D0481E00E94850388E00E9416
:10020000CD0583E00E94380481E00E944D0481E026
:100210000E94850387E00E94CD0583E00E94380498
:1002200081E00E944D0481E00E94850386E00E94E7
:10023000CD0583E00E94380481E00E944D0481E0F6
:100240000E94850385E00E94CD0583E00E9438046A
:1002500081E00E944D0481E00E94850384E00E94B9
:10026000CD0583E00E94380481E00E944D0481E0C6
:100270000E94850383E00E94CD0583E00E9438043C
:1002800081E00E944D0481E00E94850382E00E948B
:10029000CD0583E00E94380481E00E944D0481E096
:1002A0000E94850381E00E94CD0583E00E9438040E
:1002B00081E00E944D0481E00E94850380E00E945D
:1002C000CD0583E00E94380481E00E944D0481E066
:1002D0000E94850383E00E944D0481E00E944D044A
:1002E00082E00E94380466E080E00E940E0485E609
:1002F00090E00E94F8030E94DC0284E10E94CD0598
:1003000081E00E94850366E080E00E940E0485E69D
:1003100090E00E94F80383E10E94CD0582E00E94F4
:10032000380483E00E944D0481E00E944D0482E184
:100330000E94CD0582E00E94380483E00E944D04B3
:1003400081E00E944D0481E10E94CD0582E00E947F
:10035000380483E00E944D0481E00E944D0480E156
:100360000E94CD0582E00E94380483E00E944D0483
:1003700081E00E944D048FE00E94CD0582E00E9442
:10038000380483E00E944D0481E00E944D048EE019
:100390000E94CD0582E00E94380483E00E944D0453
:1003A00081E00E944D048DE00E94CD0582E00E9414
:1003B000380483E00E944D0481E00E944D048CE0EB
:1003C0000E94CD0582E00E94380483E00E944D0423
:1003D00081E00E944D048BE00E94CD0582E00E94E6
:1003E000380483E00E944D0481E00E944D048AE0BD
:1003F0000E94CD0582E00E94380483E00E944D04F3
:1004000081E00E944D0489E00E94CD0582E00E94B7
:10041000380483E00E944D0481E00E944D0488E08E
:100420000E94CD0582E00E94380483E00E944D04C2
:1004300081E00E944D0487E00E94CD0582E00E9489
:10044000380483E00E944D0481E00E944D0486E060
:100450000E94CD0582E00E94380483E00E944D0492
:1004600081E00E944D0485E00E94CD0582E00E945B
:10047000380483E00E944D0481E00E944D0484E032
:100480000E94CD0582E00E94380483E00E944D0462
:1004900081E00E944D0483E00E94CD0582E00E942D
:1004A000380483E00E944D0481E00E944D0482E004
:1004B0000E94CD0582E00E94380483E00E944D0432
:1004C00081E00E944D0481E00E94CD0582E00E94FF
:1004D000380483E00E944D0481E00E944D0480E0D6
:1004E0000E94CD0582E00E94380483E00E944D0402
:1004F00081E00E944D0464E080E00E940E048AE6E0
:1005000090E00E94F80381E00E94380483E00E949A
:100510004D0482E00E944D0483E00E94CD050E94BC
:10052000FC0281E00E94850364E080E00E940E04EA
:100530008AE690E00E94F80382E00E94CD050E94C6
:10054000EE0281E00E94380483E00E944D0482E0C4
:100550000E944D0481E00E94850381E00E94CD0548
:100560000E94DC0281E00E94380483E00E944D0476
:1005700082E00E944D0481E00E94850380E00E9499
:10058000CD050E94D20281E00E94380483E00E94DF
:100590004D0482E00E944D048FCD61E083E20E9411
:1005A0000806089561E083E20E949106089560E0E4
:1005B00083E20E949106089561E083E20E94910621
:1005C0002FEF8DEE92E0215080409040E1F700C087
:1005D000000060E083E20E94910608950E94DC0220
:1005E0002FEF83EF91E0215080409040E1F700C071
:1005F00000000E94DC0208950E94DC022FEF83EFCE
:1006000091E0215080409040E1F700C000000E943E
:10061000DC022FEF83EF91E0215080409040E1F722
:1006200000C000000E94DC02089561E088E10E94A1
:10063000080661E089E10E94080661E08AE10E9403
:10064000080661E08BE10E94080660E08AE20E94F1
:10065000080660E08BE20E94080660E08CE20E94DF
:10066000080660E08DE20E94080661E088E10E94D1
:10067000910661E089E10E94910661E08AE10E94B1
:10068000910661E08BE10E9491060895CF93C82FF7
:1006900061E08BE00E9491068BB39C2F9695987732
:1006A0008778892B8BBB61E08CE00E9491068FE9F3
:1006B0009FE00197F1F700C0000060E08CE00E942D
:1006C00091068FE19EE40197F1F700C000008BB323
:1006D000CC0FCC0FCC0FC8778778C82BCBBB61E091
:1006E0008CE00E9491068FE99FE00197F1F700C02E
:1006F000000060E08CE00E9491068FE19EE401978B
:10070000F1F700C00000CF910895CF93C82F60E0AB
:100710008BE00E9491068BB39C2F969598778778F3
:10072000892B8BBB61E08CE00E9491068FE99FE0F2
:100730000197F1F700C0000060E08CE00E94910694
:100740008FE19EE40197F1F700C000008BB3CC0F5E
:10075000CC0FCC0FC8778778C82BCBBB61E08CE07F
:100760000E9491068FE99FE00197F1F700C0000019
:1007700060E08CE00E9491068FE19EE40197F1F722
:1007800000C00000CF91089561E080E10E9408065A
:1007900061E08FE00E94080661E08EE00E9408069A
:1007A00061E08DE00E94080661E08CE00E9408068E
:1007B00061E08BE00E9408062FEF83ED90E321506B
:1007C00080409040E1F700C0000083E30E94850371
:1007D00082E30E94850388E20E9485038CE00E94E8
:1007E000850381E00E94850382E00E9485030895CD
:1007F0000F931F93CF93FC018081882359F08F01C1
:10080000C0E00E944603CF5FF801EC0FF11D80812C
:100810008111F7CFCF911F910F910895CF93DF935F
:1008200000D0CDB7DEB790E8998390EC9A83FE01B3
:10083000E80FF11D8181860F0E9485030F900F90B4
:10084000DF91CF910895823049F0833061F081309B
:1008500071F461E080E20E940806089561E08FE192
:100860000E940806089561E08EE10E94080608953E
:10087000823049F0833061F0813071F461E080E2D0
:100880000E949106089561E08FE10E94910608950B
:1008900061E08EE10E9491060895823049F0833034
:1008A00061F0813071F460E080E20E949106089569
:1008B00060E08FE10E949106089560E08EE10E9461
:1008C00091060895CF93C62F813019F0823051F0F0
:1008D00011C061E084E20E94910660E085E20E941E
:1008E000910608C060E084E20E94910661E085E222
:1008F0000E9491068C2F90E08A30910508F026C165
:10090000FC01E65DFF4F0C941A0761E08BE00E944A
:10091000910661E08CE00E94910661E08DE00E940A
:10092000910661E08EE00E94910661E08FE00E94F6
:10093000910661E080E10E94910660E081E10E9401
:10094000910604C160E08BE00E94910661E08CE0BA
:100950000E94910661E08DE00E94910660E08EE0C9
:100960000E94910660E08FE00E94910660E080E1C5
:100970000E94910660E081E10E949106E7C061E07B
:100980008BE00E94910661E08CE00E94910660E09D
:100990008DE00E94910661E08EE00E94910661E088
:1009A0008FE00E94910660E080E10E94910661E084
:1009B00081E10E949106CAC061E08BE00E9491062D
:1009C00061E08CE00E94910661E08DE00E9491065A
:1009D00061E08EE00E94910660E08FE00E94910647
:1009E00060E080E10E94910661E081E10E94910651
:1009F000ADC060E08BE00E94910661E08CE00E9457
:100A0000910661E08DE00E94910660E08EE00E9418
:100A1000910660E08FE00E94910661E080E10E9413
:100A2000910661E081E10E94910690C061E08BE057
:100A30000E94910660E08CE00E94910661E08DE0EA
:100A40000E94910661E08EE00E94910660E08FE0D6
:100A50000E94910661E080E10E94910661E081E1DF
:100A60000E94910673C061E08BE00E94910660E0F5
:100A70008CE00E94910661E08DE00E94910661E0A9
:100A80008EE00E94910661E08FE00E94910661E095
:100A900080E10E94910661E081E10E94910656C0CA
:100AA00061E08BE00E94910661E08CE00E9491067B
:100AB00061E08DE00E94910660E08EE00E94910668
:100AC00060E08FE00E94910660E080E10E94910664
:100AD00060E081E10E94910639C061E08BE00E94F4
:100AE000910661E08CE00E94910661E08DE00E9439
:100AF000910661E08EE00E94910661E08FE00E9425
:100B0000910661E080E10E94910661E081E10E942E
:100B100091061CC061E08BE00E94910661E08CE0D0
:100B20000E94910661E08DE00E94910661E08EE0F6
:100B30000E94910660E08FE00E94910661E080E1F2
:100B40000E94910661E081E10E949106CF91089593
:100B500061E08BE00E94080661E08CE00E940806DC
:100B600061E08DE00E94080661E08EE00E940806C8
:100B700061E08FE00E94080661E080E10E940806C3
:100B800061E081E10E94080661E084E20E940806BB
:100B900061E085E20E94080608950F931F93CF93AA
:100BA000DF931DEC819F112D1124012F06950695D1
:100BB0000695000F902F990F990F090F801B082F92
:100BC000169516951695C4EFD1E0602F81E00E942E
:100BD00062048FE99FE00197F1F700C00000612FE8
:100BE00082E00E9462048FE99FE00197F1F700C064
:100BF0000000219751F760E084E20E94910660E0D6
:100C000085E20E949106DF91CF911F910F91089587
:100C10009DEC899F912D1124292F269526952695A7
:100C2000220F322F330F330F230F821B282F96955D
:100C300096959695662319F06130E1F1089592300A
:100C4000A9F018F4913031F008959330D9F0943030
:100C500029F108953AB381E090E002C0880F991F0E
:100C60002A95E2F7809583238ABB089537B381E004
:100C700090E002C0880F991F2A95E2F780958323A0
:100C800087BB089534B381E090E002C0880F991FBC
:100C90002A95E2F78095832384BB089531B381E0E0
:100CA00090E002C0880F991F2A95E2F78095832370
:100CB00081BB08959230A1F018F4913031F008957D
:100CC0009330C9F0943011F108953AB381E090E087
:100CD00002C0880F991F2A95E2F7832B8ABB0895DB
:100CE00037B381E090E002C0880F991F2A95E2F7A0
:100CF000832B87BB089534B381E090E002C0880F56
:100D0000991F2A95E2F7832B84BB089531B381E0C4
:100D100090E002C0880F991F2A95E2F7832B81BBD0
:100D200008959DEC899F912D1124292F26952695B4
:100D30002695220F322F330F330F230F821B282FBC
:100D4000969596959695662319F06130E1F1089590
:100D50009230A9F018F4913031F008959330D9F021
:100D6000943029F108953BB381E090E002C0880FF0
:100D7000991F2A95E2F7809583238BBB089538B39A
:100D800081E090E002C0880F991F2A95E2F78095D4
:100D9000832388BB089535B381E090E002C0880FBB
:100DA000991F2A95E2F78095832385BB089532B376
:100DB00081E090E002C0880F991F2A95E2F78095A4
:100DC000832382BB08959230A1F018F4913031F062
:100DD00008959330C9F0943011F108953BB381E048
:100DE00090E002C0880F991F2A95E2F7832B8BBBF6
:100DF000089538B381E090E002C0880F991F2A95CA
:100E0000E2F7832B88BB089535B381E090E002C000
:100E1000880F991F2A95E2F7832B85BB089532B37B
:100E200081E090E002C0880F991F2A95E2F7832B9A
:100E300082BB0895EE0FFF1F0590F491E02D0994F9
:040E4000F894FFCF54
:100E440073746F70006D6F766500736C6F772064D8
:040E54006F776E0046
:00000001FF
